{
  "abi": [
    {
      "inputs": [
        {
          "internalType": "address",
          "name": "ownerAddress",
          "type": "address"
        },
        {
          "internalType": "address",
          "name": "oracleAddress",
          "type": "address"
        }
      ],
      "stateMutability": "nonpayable",
      "type": "constructor"
    },
    {
      "anonymous": false,
      "inputs": [
        {
          "indexed": false,
          "internalType": "address",
          "name": "nftContractAddress",
          "type": "address"
        }
      ],
      "name": "NFTProductAdded",
      "type": "event"
    },
    {
      "anonymous": false,
      "inputs": [
        {
          "indexed": false,
          "internalType": "address",
          "name": "nftContractAddress",
          "type": "address"
        }
      ],
      "name": "NFTProductRemoved",
      "type": "event"
    },
    {
      "anonymous": false,
      "inputs": [
        {
          "indexed": true,
          "internalType": "address",
          "name": "user",
          "type": "address"
        },
        {
          "indexed": true,
          "internalType": "address",
          "name": "newOwner",
          "type": "address"
        }
      ],
      "name": "OwnerUpdated",
      "type": "event"
    },
    {
      "inputs": [],
      "name": "DOMAIN_SEPARATOR",
      "outputs": [
        {
          "internalType": "bytes32",
          "name": "",
          "type": "bytes32"
        }
      ],
      "stateMutability": "view",
      "type": "function"
    },
    {
      "inputs": [
        {
          "internalType": "address",
          "name": "nftContractAddress",
          "type": "address"
        },
        {
          "components": [
            {
              "internalType": "uint256",
              "name": "maxLeverage",
              "type": "uint256"
            },
            {
              "internalType": "uint256",
              "name": "liquidationThreshold",
              "type": "uint256"
            },
            {
              "internalType": "uint256",
              "name": "fee",
              "type": "uint256"
            },
            {
              "internalType": "uint256",
              "name": "interest",
              "type": "uint256"
            },
            {
              "internalType": "uint256",
              "name": "maxExposureWeight",
              "type": "uint256"
            },
            {
              "internalType": "uint256",
              "name": "reserve",
              "type": "uint256"
            },
            {
              "internalType": "uint256",
              "name": "openInterestLong",
              "type": "uint256"
            },
            {
              "internalType": "uint256",
              "name": "openInterestShort",
              "type": "uint256"
            }
          ],
          "internalType": "struct Exchange.NFTProduct",
          "name": "nftProduct",
          "type": "tuple"
        }
      ],
      "name": "addNFTProduct",
      "outputs": [],
      "stateMutability": "nonpayable",
      "type": "function"
    },
    {
      "inputs": [],
      "name": "exposureMultiplier",
      "outputs": [
        {
          "internalType": "uint256",
          "name": "",
          "type": "uint256"
        }
      ],
      "stateMutability": "view",
      "type": "function"
    },
    {
      "inputs": [
        {
          "internalType": "enum Exchange.PositionKind",
          "name": "positionKind",
          "type": "uint8"
        },
        {
          "internalType": "uint256",
          "name": "quotedPrice",
          "type": "uint256"
        },
        {
          "internalType": "uint256",
          "name": "positionPrice",
          "type": "uint256"
        },
        {
          "internalType": "uint256",
          "name": "size",
          "type": "uint256"
        },
        {
          "internalType": "uint256",
          "name": "interest",
          "type": "uint256"
        },
        {
          "internalType": "uint256",
          "name": "timestamp",
          "type": "uint256"
        }
      ],
      "name": "getPnL",
      "outputs": [
        {
          "internalType": "int256",
          "name": "",
          "type": "int256"
        }
      ],
      "stateMutability": "view",
      "type": "function"
    },
    {
      "inputs": [
        {
          "internalType": "address",
          "name": "user",
          "type": "address"
        },
        {
          "internalType": "address",
          "name": "nftContractAddress",
          "type": "address"
        },
        {
          "internalType": "enum Exchange.PositionKind",
          "name": "positionKind",
          "type": "uint8"
        }
      ],
      "name": "getPositionId",
      "outputs": [
        {
          "internalType": "bytes32",
          "name": "positionId",
          "type": "bytes32"
        }
      ],
      "stateMutability": "pure",
      "type": "function"
    },
    {
      "inputs": [],
      "name": "maxShift",
      "outputs": [
        {
          "internalType": "uint256",
          "name": "",
          "type": "uint256"
        }
      ],
      "stateMutability": "view",
      "type": "function"
    },
    {
      "inputs": [],
      "name": "minMargin",
      "outputs": [
        {
          "internalType": "uint256",
          "name": "",
          "type": "uint256"
        }
      ],
      "stateMutability": "view",
      "type": "function"
    },
    {
      "inputs": [
        {
          "internalType": "address",
          "name": "",
          "type": "address"
        }
      ],
      "name": "nftProducts",
      "outputs": [
        {
          "internalType": "uint256",
          "name": "maxLeverage",
          "type": "uint256"
        },
        {
          "internalType": "uint256",
          "name": "liquidationThreshold",
          "type": "uint256"
        },
        {
          "internalType": "uint256",
          "name": "fee",
          "type": "uint256"
        },
        {
          "internalType": "uint256",
          "name": "interest",
          "type": "uint256"
        },
        {
          "internalType": "uint256",
          "name": "maxExposureWeight",
          "type": "uint256"
        },
        {
          "internalType": "uint256",
          "name": "reserve",
          "type": "uint256"
        },
        {
          "internalType": "uint256",
          "name": "openInterestLong",
          "type": "uint256"
        },
        {
          "internalType": "uint256",
          "name": "openInterestShort",
          "type": "uint256"
        }
      ],
      "stateMutability": "view",
      "type": "function"
    },
    {
      "inputs": [
        {
          "internalType": "address",
          "name": "nftContractAddress",
          "type": "address"
        },
        {
          "internalType": "enum Exchange.PositionKind",
          "name": "positionKind",
          "type": "uint8"
        },
        {
          "internalType": "uint256",
          "name": "margin",
          "type": "uint256"
        },
        {
          "internalType": "uint256",
          "name": "leverage",
          "type": "uint256"
        },
        {
          "internalType": "uint256",
          "name": "oraclePrice",
          "type": "uint256"
        },
        {
          "components": [
            {
              "internalType": "bytes32",
              "name": "request",
              "type": "bytes32"
            },
            {
              "internalType": "uint256",
              "name": "deadline",
              "type": "uint256"
            },
            {
              "internalType": "bytes",
              "name": "payload",
              "type": "bytes"
            },
            {
              "internalType": "uint8",
              "name": "v",
              "type": "uint8"
            },
            {
              "internalType": "bytes32",
              "name": "r",
              "type": "bytes32"
            },
            {
              "internalType": "bytes32",
              "name": "s",
              "type": "bytes32"
            }
          ],
          "internalType": "struct TrustusPacket",
          "name": "packet",
          "type": "tuple"
        }
      ],
      "name": "openPosition",
      "outputs": [
        {
          "internalType": "bytes32",
          "name": "positionId",
          "type": "bytes32"
        }
      ],
      "stateMutability": "payable",
      "type": "function"
    },
    {
      "inputs": [],
      "name": "oracle",
      "outputs": [
        {
          "internalType": "address",
          "name": "",
          "type": "address"
        }
      ],
      "stateMutability": "view",
      "type": "function"
    },
    {
      "inputs": [],
      "name": "owner",
      "outputs": [
        {
          "internalType": "address",
          "name": "",
          "type": "address"
        }
      ],
      "stateMutability": "view",
      "type": "function"
    },
    {
      "inputs": [],
      "name": "pool",
      "outputs": [
        {
          "internalType": "address",
          "name": "",
          "type": "address"
        }
      ],
      "stateMutability": "view",
      "type": "function"
    },
    {
      "inputs": [
        {
          "internalType": "bytes32",
          "name": "",
          "type": "bytes32"
        }
      ],
      "name": "positions",
      "outputs": [
        {
          "internalType": "uint256",
          "name": "margin",
          "type": "uint256"
        },
        {
          "internalType": "uint256",
          "name": "leverage",
          "type": "uint256"
        },
        {
          "internalType": "uint256",
          "name": "timestamp",
          "type": "uint256"
        },
        {
          "internalType": "uint256",
          "name": "price",
          "type": "uint256"
        }
      ],
      "stateMutability": "view",
      "type": "function"
    },
    {
      "inputs": [
        {
          "internalType": "address",
          "name": "nftContractAddress",
          "type": "address"
        }
      ],
      "name": "removeNFTProduct",
      "outputs": [],
      "stateMutability": "nonpayable",
      "type": "function"
    },
    {
      "inputs": [
        {
          "internalType": "address",
          "name": "newOwner",
          "type": "address"
        }
      ],
      "name": "setOwner",
      "outputs": [],
      "stateMutability": "nonpayable",
      "type": "function"
    },
    {
      "inputs": [],
      "name": "totalMaxExposureWeight",
      "outputs": [
        {
          "internalType": "uint256",
          "name": "",
          "type": "uint256"
        }
      ],
      "stateMutability": "view",
      "type": "function"
    },
    {
      "inputs": [],
      "name": "totalOpenInterest",
      "outputs": [
        {
          "internalType": "uint256",
          "name": "",
          "type": "uint256"
        }
      ],
      "stateMutability": "view",
      "type": "function"
    },
    {
      "inputs": [],
      "name": "utilizationMultiplier",
      "outputs": [
        {
          "internalType": "uint256",
          "name": "",
          "type": "uint256"
        }
      ],
      "stateMutability": "view",
      "type": "function"
    },
    {
      "inputs": [],
      "name": "weth",
      "outputs": [
        {
          "internalType": "contract WETH",
          "name": "",
          "type": "address"
        }
      ],
      "stateMutability": "view",
      "type": "function"
    }
  ],
  "bytecode": {
    "object": "0x73c02aaa39b223fe8d0a0e5c4f27ead9083c756cc26080527f8b73c3c69bb8fe3d512ecc4cf759cc79239f7b179b0ffacaa9a75d522b39400f60e09081527f538994712813340619037fa80cd8e0445a8f803703c06bf680f1090322d6656a610100527fc89efdaa54c0f20c7adf612882df0950f5a951637e0307cdcb4c672f298b8bc6610120524661014052306101605260a060c0819052610180604052908190209052662386f26fc10000600155620493e0600655348015620000c357600080fd5b50604051620037ca380380620037ca833981016040819052620000e691620001dc565b600080546001600160a01b0319166001600160a01b03841690811782556040518492907f8292fce18fa69edf4db7b94ea2e58241df0ae57f97e0a6c9b29067028bf92d76908290a350600780546001600160a01b0319166001600160a01b03831617905560405130906200015a90620001b1565b6001600160a01b039091168152602001604051809103906000f08015801562000187573d6000803e3d6000fd5b50600880546001600160a01b0319166001600160a01b039290921691909117905550620002149050565b611bdd8062001bed83390190565b80516001600160a01b0381168114620001d757600080fd5b919050565b60008060408385031215620001f057600080fd5b620001fb83620001bf565b91506200020b60208401620001bf565b90509250929050565b60805160a0516119ac620002416000396000818161018a01526105a0015260006101e201526119ac6000f3fe6080604052600436106101145760003560e01c80637dc0d1d0116100a0578063c11295c411610064578063c11295c41461033b578063c99d25a61461035b578063d468e2a9146103f4578063f6d2e95c1461040a578063fcc40f771461042a57600080fd5b80637dc0d1d0146102af578063841a4b51146102cf5780638da5cb5b146102e5578063900864d914610305578063a0448fc51461032557600080fd5b80633fc8cef3116100e75780633fc8cef3146101d0578063412fdc051461020457806349a6efd114610217578063514ea4bf146102375780635b3829891461029957600080fd5b806313af40351461011957806316f0115b1461013b5780633644e5151461017857806339c294be146101ba575b600080fd5b34801561012557600080fd5b506101396101343660046113b9565b610440565b005b34801561014757600080fd5b5060085461015b906001600160a01b031681565b6040516001600160a01b0390911681526020015b60405180910390f35b34801561018457600080fd5b506101ac7f000000000000000000000000000000000000000000000000000000000000000081565b60405190815260200161016f565b3480156101c657600080fd5b506101ac60015481565b3480156101dc57600080fd5b5061015b7f000000000000000000000000000000000000000000000000000000000000000081565b6101ac6102123660046113ea565b6104be565b34801561022357600080fd5b506101ac61023236600461146b565b610a98565b34801561024357600080fd5b506102796102523660046114b5565b600a6020526000908152604090208054600182015460028301546003909301549192909184565b60408051948552602085019390935291830152606082015260800161016f565b3480156102a557600080fd5b506101ac60055481565b3480156102bb57600080fd5b5060075461015b906001600160a01b031681565b3480156102db57600080fd5b506101ac60045481565b3480156102f157600080fd5b5060005461015b906001600160a01b031681565b34801561031157600080fd5b506101396103203660046114ce565b610bfb565b34801561033157600080fd5b506101ac60065481565b34801561034757600080fd5b506101ac610356366004611591565b610d9b565b34801561036757600080fd5b506103b96103763660046113b9565b6009602052600090815260409020805460018201546002830154600384015460048501546005860154600687015460079097015495969495939492939192909188565b604080519889526020890197909752958701949094526060860192909252608085015260a084015260c083015260e08201526101000161016f565b34801561040057600080fd5b506101ac60025481565b34801561041657600080fd5b506101396104253660046113b9565b610dd1565b34801561043657600080fd5b506101ac60035481565b6000546001600160a01b031633146104735760405162461bcd60e51b815260040161046a906115d4565b60405180910390fd5b600080546001600160a01b0319166001600160a01b0383169081178255604051909133917f8292fce18fa69edf4db7b94ea2e58241df0ae57f97e0a6c9b29067028bf92d769190a350565b600042826020013510156105055760405162461bcd60e51b815260206004820152600e60248201526d141858dad95d08195e1c1a5c995960921b604482015260640161046a565b60408051630747761760e41b60208201526718dbdb9d1c9858dd60c21b60248201526bffffffffffffffffffffffff1960608a901b16602c820152016040516020818303038152906040528051906020012082600001351461059a5760405162461bcd60e51b815260206004820152600e60248201526d125b9d985b1a59081c1858dad95d60921b604482015260640161046a565b600060017f00000000000000000000000000000000000000000000000000000000000000007ffc7ecbf4f091085173dad8d1d3c2dfd218c018596a572201cd849763d1114e7a853560208701356105f460408901896115fa565b604051610602929190611648565b6040519081900381206106309493929160200193845260208401929092526040830152606082015260800190565b6040516020818303038152906040528051906020012060405160200161066d92919061190160f01b81526002810192909252602282015260420190565b60408051601f1981840301815291905280516020909101206106956080860160608701611658565b6040805160008152602081018083529390935260ff90911690820152608080860135606083015260a08087013591830191909152016020604051602081039080840390855afa1580156106ec573d6000803e3d6000fd5b5050604051601f1901516007549092506001600160a01b03808416911614905061074e5760405162461bcd60e51b81526020600482015260136024820152722ab730baba3437b934bd32b21039b4b3b732b960691b604482015260640161046a565b6001548610156107915760405162461bcd60e51b815260206004820152600e60248201526d24b73b30b634b21036b0b933b4b760911b604482015260640161046a565b6001600160a01b0388166000908152600960205260409020678ac7230489e8000086108015906107c2575080548611155b6108015760405162461bcd60e51b815260206004820152601060248201526f496e76616c6964206c6576657261676560801b604482015260640161046a565b6000678ac7230489e80000610816888a611691565b61082091906116c6565b90506000629896808360020154836108389190611691565b61084291906116c6565b9050600061090e8b85600601548660070154620186a06003546004548a60040154600860009054906101000a90046001600160a01b03166001600160a01b03166301e1d1146040518163ffffffff1660e01b8152600401602060405180830381865afa1580156108b6573d6000803e3d6000fd5b505050506040513d601f19601f820116820180604052508101906108da91906116da565b6108e49190611691565b6108ee9190611691565b6108f891906116c6565b61090291906116c6565b8860050154888e610f1b565b905061091d8c60008086611099565b610928338d8d610d9b565b6000818152600a60205260409020805491975090429015610a41578154610950908d90611691565b61095a428e611691565b6002840154845461096b9190611691565b61097591906116f3565b61097f91906116c6565b905061098b8b8d611691565b6001830154835461099c9190611691565b6109a691906116f3565b836109b18d8f611691565b6109bb9190611691565b6003840154600185015485546109d19190611691565b6109db9190611691565b6109e591906116f3565b6109ef91906116c6565b82549093506109ff908d906116f3565b610a098c8e611691565b60018401548454610a1a9190611691565b610a2491906116f3565b610a2e91906116c6565b8254909b50610a3e908d906116f3565b9b505b604080516080810182529c8d526020808e019c8d528d820192835260608e0194855260008a8152600a909152209b518c55995160018c015550975160028a0155505094516003909601959095559695505050505050565b6000808080896001811115610aaf57610aaf61170b565b03610b0b57868810610ae15786610ac6818a611721565b610ad09088611691565b610ada91906116c6565b9150610b40565b86610aec8982611721565b610af69088611691565b610b0091906116c6565b915060019050610b40565b86881115610b1e5786610aec818a611721565b86610b298982611721565b610b339088611691565b610b3d91906116c6565b91505b610b4c846103846116f3565b4210610bd2576000610b656301da9c00620186a0611691565b610b6f8642611721565b610b79888a611691565b610b839190611691565b610b8d91906116c6565b90508115610ba657610b9f81846116f3565b9250610bd0565b80831015610bc357610bb88382611721565b925060019150610bd0565b610bcd8184611721565b92505b505b8015610bed57610be482600019611738565b92505050610bf1565b5090505b9695505050505050565b6000546001600160a01b03163314610c255760405162461bcd60e51b815260040161046a906115d4565b6001600160a01b03821660009081526009602052604090206001015415610c8e5760405162461bcd60e51b815260206004820152601a60248201527f4e46542070726f6475637420616c726561647920657869737473000000000000604482015260640161046a565b8060200151600003610ce25760405162461bcd60e51b815260206004820152601a60248201527f5a65726f206c69717569646174696f6e207468726573686f6c64000000000000604482015260640161046a565b6001600160a01b0382166000908152600960209081526040808320845181559184015160018301558301516002820155606083015160038083019190915560808401516004830181905560a085015160058401556006830184905560078301849055815492939092610d559084906116f3565b90915550506040516001600160a01b03841681527f51a8c639eb79153afe86d806736f7747e77ab9412705f0d416a832543e3047d09060200160405180910390a1505050565b6000838383604051602001610db2939291906117bd565b6040516020818303038152906040528051906020012090509392505050565b6000546001600160a01b03163314610dfb5760405162461bcd60e51b815260040161046a906115d4565b6001600160a01b0381166000908152600960205260408120600101549003610e655760405162461bcd60e51b815260206004820152601a60248201527f4e46542070726f6475637420646f6573206e6f74206578697374000000000000604482015260640161046a565b6001600160a01b0381166000908152600960205260408120600401546003805491929091610e94908490611721565b90915550506001600160a01b03811660008181526009602090815260408083208381556001810184905560028101849055600381018490556004810184905560058101849055600681018490556007019290925590519182527f4a10c0a2e1eb7c1fbc87133acf0794e49149208d914562d2edd7b0547ee99aa3910160405180910390a150565b60008085600654888a610f2e9190611814565b610f389190611738565b610f429190611853565b90506000808a6001811115610f5957610f5961170b565b03610fe95784678ac7230489e8000087610f738382611721565b610f7e60028b611967565b610f8891906116c6565b610f929190611721565b610f9c9190611691565b610fa691906116c6565b90506000821215610fd8576002610fbf83600019611738565b610fc991906116c6565b610fd39082611721565b610fe2565b610fe282826116f3565b905061106e565b84678ac7230489e80000610ffd82896116f3565b61100860028a611967565b61101291906116c6565b61101c9089611721565b6110269190611691565b61103091906116c6565b905060008212156110565761104782600019611738565b6110519082611721565b61106b565b6110616002836116c6565b61106b90826116f3565b90505b678ac7230489e800006110818286611691565b61108b91906116c6565b9a9950505050505050505050565b6001600160a01b03841660009081526009602052604081206006810154600782015491929091908560018111156110d2576110d261170b565b036112e657600280549060006110e883806116f3565b9091555050600854604080516278744560e21b815290516000926001600160a01b0316916301e1d1149160048083019260209291908290030181865afa158015611136573d6000803e3d6000fd5b505050506040513d601f19601f8201168201806040525081019061115a91906116da565b9050620186a06005548261116e9190611691565b61117891906116c6565b60025411156111c95760405162461bcd60e51b815260206004820152601b60248201527f41626f7665206d6178696d756d206f70656e20696e7465726573740000000000604482015260640161046a565b6000620186a06003546004548760040154856111e59190611691565b6111ef9190611691565b6111f991906116c6565b61120391906116c6565b905060008860018111156112195761121961170b565b036112815761122886856116f3565b935061123483826116f3565b84111561127c5760405162461bcd60e51b815260206004820152601660248201527541626f7665206d6178696d756d206578706f7375726560501b604482015260640161046a565b6112df565b61128b86846116f3565b925061129784826116f3565b8311156112df5760405162461bcd60e51b815260206004820152601660248201527541626f7665206d6178696d756d206578706f7375726560501b604482015260640161046a565b5050611394565b83600260008282546112f89190611721565b90915550600090508660018111156113125761131261170b565b0361135857838360060154101561132a57600061133a565b83836006015461133a9190611721565b83600601600082825461134d9190611721565b909155506113949050565b838360070154101561136b57600061137b565b83836007015461137b9190611721565b83600701600082825461138e9190611721565b90915550505b50505050505050565b80356001600160a01b03811681146113b457600080fd5b919050565b6000602082840312156113cb57600080fd5b6113d48261139d565b9392505050565b8035600281106113b457600080fd5b60008060008060008060c0878903121561140357600080fd5b61140c8761139d565b955061141a602088016113db565b945060408701359350606087013592506080870135915060a087013567ffffffffffffffff81111561144b57600080fd5b870160c0818a03121561145d57600080fd5b809150509295509295509295565b60008060008060008060c0878903121561148457600080fd5b61148d876113db565b9860208801359850604088013597606081013597506080810135965060a00135945092505050565b6000602082840312156114c757600080fd5b5035919050565b6000808284036101208112156114e357600080fd5b6114ec8461139d565b925061010080601f198301121561150257600080fd5b604051915080820182811067ffffffffffffffff8211171561153457634e487b7160e01b600052604160045260246000fd5b80604052506020850135825260408501356020830152606085013560408301526080850135606083015260a0850135608083015260c085013560a083015260e085013560c08301528085013560e083015250809150509250929050565b6000806000606084860312156115a657600080fd5b6115af8461139d565b92506115bd6020850161139d565b91506115cb604085016113db565b90509250925092565b6020808252600c908201526b15539055551213d49256915160a21b604082015260600190565b6000808335601e1984360301811261161157600080fd5b83018035915067ffffffffffffffff82111561162c57600080fd5b60200191503681900382131561164157600080fd5b9250929050565b8183823760009101908152919050565b60006020828403121561166a57600080fd5b813560ff811681146113d457600080fd5b634e487b7160e01b600052601160045260246000fd5b60008160001904831182151516156116ab576116ab61167b565b500290565b634e487b7160e01b600052601260045260246000fd5b6000826116d5576116d56116b0565b500490565b6000602082840312156116ec57600080fd5b5051919050565b600082198211156117065761170661167b565b500190565b634e487b7160e01b600052602160045260246000fd5b6000828210156117335761173361167b565b500390565b60006001600160ff1b038184138284138082168684048611161561175e5761175e61167b565b600160ff1b600087128281168783058912161561177d5761177d61167b565b600087129250878205871284841616156117995761179961167b565b878505871281841616156117af576117af61167b565b505050929093029392505050565b60006bffffffffffffffffffffffff19808660601b168352808560601b16601484015250600283106117ff57634e487b7160e01b600052602160045260246000fd5b5060f89190911b602882015260290192915050565b60008083128015600160ff1b8501841216156118325761183261167b565b6001600160ff1b038401831381161561184d5761184d61167b565b50500390565b600082611862576118626116b0565b600160ff1b82146000198414161561187c5761187c61167b565b500590565b600181815b808511156118bc5781600019048211156118a2576118a261167b565b808516156118af57918102915b93841c9390800290611886565b509250929050565b6000826118d357506001611961565b816118e057506000611961565b81600181146118f657600281146119005761191c565b6001915050611961565b60ff8411156119115761191161167b565b50506001821b611961565b5060208310610133831016604e8410600b841016171561193f575081810a611961565b6119498383611881565b806000190482111561195d5761195d61167b565b0290505b92915050565b60006113d460ff8416836118c456fea264697066735822122084eab073c2dbb64b93c5af3a0e18462e1b4b8337d90d97414a0109117a12106264736f6c634300080d003361012060405273c02aaa39b223fe8d0a0e5c4f27ead9083c756cc2610100523480156200002b57600080fd5b5060405162001bdd38038062001bdd8339810160408190526200004e916200030c565b610100516040518060400160405280600b81526020016a2628102837b9b4ba34b7b760a91b8152506040518060400160405280600281526020016106c760f41b8152508181846001600160a01b031663313ce5676040518163ffffffff1660e01b8152600401602060405180830381865afa158015620000d2573d6000803e3d6000fd5b505050506040513d601f19601f82011682018060405250810190620000f891906200033e565b82516200010d90600090602086019062000266565b5081516200012390600190602085019062000266565b5060ff81166080524660a05262000139620001ca565b60c052505050506001600160a01b0391821660e052506101005160405163095ea7b360e01b81528383166004820152600019602482015291169063095ea7b3906044016020604051808303816000875af11580156200019c573d6000803e3d6000fd5b505050506040513d601f19601f82011682018060405250810190620001c2919062000363565b505062000466565b60007f8b73c3c69bb8fe3d512ecc4cf759cc79239f7b179b0ffacaa9a75d522b39400f6000604051620001fe9190620003c3565b6040805191829003822060208301939093528101919091527fc89efdaa54c0f20c7adf612882df0950f5a951637e0307cdcb4c672f298b8bc660608201524660808201523060a082015260c00160405160208183030381529060405280519060200120905090565b828054620002749062000387565b90600052602060002090601f016020900481019282620002985760008555620002e3565b82601f10620002b357805160ff1916838001178555620002e3565b82800160010185558215620002e3579182015b82811115620002e3578251825591602001919060010190620002c6565b50620002f1929150620002f5565b5090565b5b80821115620002f15760008155600101620002f6565b6000602082840312156200031f57600080fd5b81516001600160a01b03811681146200033757600080fd5b9392505050565b6000602082840312156200035157600080fd5b815160ff811681146200033757600080fd5b6000602082840312156200037657600080fd5b815180151581146200033757600080fd5b600181811c908216806200039c57607f821691505b602082108103620003bd57634e487b7160e01b600052602260045260246000fd5b50919050565b600080835481600182811c915080831680620003e057607f831692505b602080841082036200040057634e487b7160e01b86526022600452602486fd5b818015620004175760018114620004295762000458565b60ff1986168952848901965062000458565b60008a81526020902060005b86811015620004505781548b82015290850190830162000435565b505084890196505b509498975050505050505050565b60805160a05160c05160e05161010051611708620004d5600039600081816101cd0152818161045701526106f001526000818161040b01528181610a4e01528181610ae601528181610cca0152610e0c015260006109c401526000610994015260006103b001526117086000f3fe6080604052600436106101c65760003560e01c806370a08231116100f7578063ba08765211610095578063d505accf11610064578063d505accf1461062a578063d905777e1461064a578063dd62ed3e14610680578063ef8b30f7146106b857600080fd5b8063ba087652146105ca578063c63d75b614610479578063c6e6f592146105ea578063ce96cb771461060a57600080fd5b806395d89b41116100d157806395d89b4114610555578063a9059cbb1461056a578063b3d7f6b91461058a578063b460af94146105aa57600080fd5b806370a08231146104db5780637ecebe001461050857806394bf804d1461053557600080fd5b8063313ce567116101645780633fc8cef31161013e5780633fc8cef314610445578063402d267d146104795780634cdad5061461049b5780636e553f65146104bb57600080fd5b8063313ce5671461039e5780633644e515146103e457806338d52e0f146103f957600080fd5b8063095ea7b3116101a0578063095ea7b3146103185780630a28a4771461034857806318160ddd1461036857806323b872dd1461037e57600080fd5b806301e1d114146102ae57806306fdde03146102d657806307a2d13a146102f857600080fd5b366102a9577f00000000000000000000000000000000000000000000000000000000000000006001600160a01b031663d0e30db0346040518263ffffffff1660e01b81526004016000604051808303818588803b15801561022657600080fd5b505af115801561023a573d6000803e3d6000fd5b5050604051636e553f6560e01b8152346004820152336024820152309350636e553f65925060440190506020604051808303816000875af1158015610283573d6000803e3d6000fd5b505050506040513d601f19601f820116820180604052508101906102a7919061136f565b005b600080fd5b3480156102ba57600080fd5b506102c36106d8565b6040519081526020015b60405180910390f35b3480156102e257600080fd5b506102eb610768565b6040516102cd9190611388565b34801561030457600080fd5b506102c36103133660046113dd565b6107f6565b34801561032457600080fd5b50610338610333366004611412565b610823565b60405190151581526020016102cd565b34801561035457600080fd5b506102c36103633660046113dd565b610890565b34801561037457600080fd5b506102c360025481565b34801561038a57600080fd5b5061033861039936600461143c565b6108b0565b3480156103aa57600080fd5b506103d27f000000000000000000000000000000000000000000000000000000000000000081565b60405160ff90911681526020016102cd565b3480156103f057600080fd5b506102c3610990565b34801561040557600080fd5b5061042d7f000000000000000000000000000000000000000000000000000000000000000081565b6040516001600160a01b0390911681526020016102cd565b34801561045157600080fd5b5061042d7f000000000000000000000000000000000000000000000000000000000000000081565b34801561048557600080fd5b506102c3610494366004611478565b5060001990565b3480156104a757600080fd5b506102c36104b63660046113dd565b6109e6565b3480156104c757600080fd5b506102c36104d6366004611493565b6109f1565b3480156104e757600080fd5b506102c36104f6366004611478565b60036020526000908152604090205481565b34801561051457600080fd5b506102c3610523366004611478565b60056020526000908152604090205481565b34801561054157600080fd5b506102c3610550366004611493565b610acc565b34801561056157600080fd5b506102eb610b5b565b34801561057657600080fd5b50610338610585366004611412565b610b68565b34801561059657600080fd5b506102c36105a53660046113dd565b610bce565b3480156105b657600080fd5b506102c36105c53660046114bf565b610bed565b3480156105d657600080fd5b506102c36105e53660046114bf565b610cf1565b3480156105f657600080fd5b506102c36106053660046113dd565b610e33565b34801561061657600080fd5b506102c3610625366004611478565b610e53565b34801561063657600080fd5b506102a76106453660046114fb565b610e75565b34801561065657600080fd5b506102c3610665366004611478565b6001600160a01b031660009081526003602052604090205490565b34801561068c57600080fd5b506102c361069b36600461156e565b600460209081526000928352604080842090915290825290205481565b3480156106c457600080fd5b506102c36106d33660046113dd565b6110b9565b6040516370a0823160e01b81523060048201526000907f00000000000000000000000000000000000000000000000000000000000000006001600160a01b0316906370a0823190602401602060405180830381865afa15801561073f573d6000803e3d6000fd5b505050506040513d601f19601f82011682018060405250810190610763919061136f565b905090565b6000805461077590611598565b80601f01602080910402602001604051908101604052809291908181526020018280546107a190611598565b80156107ee5780601f106107c3576101008083540402835291602001916107ee565b820191906000526020600020905b8154815290600101906020018083116107d157829003601f168201915b505050505081565b600254600090801561081a5761081561080d6106d8565b8490836110c4565b61081c565b825b9392505050565b3360008181526004602090815260408083206001600160a01b038716808552925280832085905551919290917f8c5be1e5ebec7d5bd14f71427d1e84f3dd0314c0f7b2291e5b200ac8c7c3b9259061087e9086815260200190565b60405180910390a35060015b92915050565b600254600090801561081a57610815816108a86106d8565b8591906110e3565b6001600160a01b0383166000908152600460209081526040808320338452909152812054600019811461090c576108e783826115e8565b6001600160a01b03861660009081526004602090815260408083203384529091529020555b6001600160a01b038516600090815260036020526040812080548592906109349084906115e8565b90915550506001600160a01b03808516600081815260036020526040908190208054870190555190918716906000805160206116b38339815191529061097d9087815260200190565b60405180910390a3506001949350505050565b60007f000000000000000000000000000000000000000000000000000000000000000046146109c157610763611111565b507f000000000000000000000000000000000000000000000000000000000000000090565b600061088a826107f6565b60006109fc836110b9565b905080600003610a415760405162461bcd60e51b815260206004820152600b60248201526a5a45524f5f53484152455360a81b60448201526064015b60405180910390fd5b610a766001600160a01b037f0000000000000000000000000000000000000000000000000000000000000000163330866111ab565b610a808282611235565b60408051848152602081018390526001600160a01b0384169133917fdcbc1c05240f31ff3ad067ef1ee35ce4997762752e3a095284754544f4c709d791015b60405180910390a361088a565b6000610ad783610bce565b9050610b0e6001600160a01b037f0000000000000000000000000000000000000000000000000000000000000000163330846111ab565b610b188284611235565b60408051828152602081018590526001600160a01b0384169133917fdcbc1c05240f31ff3ad067ef1ee35ce4997762752e3a095284754544f4c709d79101610abf565b6001805461077590611598565b33600090815260036020526040812080548391908390610b899084906115e8565b90915550506001600160a01b038316600081815260036020526040908190208054850190555133906000805160206116b38339815191529061087e9086815260200190565b600254600090801561081a57610815610be56106d8565b8490836110e3565b6000610bf884610890565b9050336001600160a01b03831614610c68576001600160a01b03821660009081526004602090815260408083203384529091529020546000198114610c6657610c4182826115e8565b6001600160a01b03841660009081526004602090815260408083203384529091529020555b505b610c72828261128f565b60408051858152602081018390526001600160a01b03808516929086169133917ffbde797d201c681b91056529119e0b02407c7bb96a4a2c75c01fc9667232c8db910160405180910390a461081c6001600160a01b037f00000000000000000000000000000000000000000000000000000000000000001684866112f1565b6000336001600160a01b03831614610d61576001600160a01b03821660009081526004602090815260408083203384529091529020546000198114610d5f57610d3a85826115e8565b6001600160a01b03841660009081526004602090815260408083203384529091529020555b505b610d6a846109e6565b905080600003610daa5760405162461bcd60e51b815260206004820152600b60248201526a5a45524f5f41535345545360a81b6044820152606401610a38565b610db4828561128f565b60408051828152602081018690526001600160a01b03808516929086169133917ffbde797d201c681b91056529119e0b02407c7bb96a4a2c75c01fc9667232c8db910160405180910390a461081c6001600160a01b037f00000000000000000000000000000000000000000000000000000000000000001684836112f1565b600254600090801561081a5761081581610e4b6106d8565b8591906110c4565b6001600160a01b03811660009081526003602052604081205461088a906107f6565b42841015610ec55760405162461bcd60e51b815260206004820152601760248201527f5045524d49545f444541444c494e455f455850495245440000000000000000006044820152606401610a38565b60006001610ed1610990565b6001600160a01b038a811660008181526005602090815260409182902080546001810190915582517f6e71edae12b1b97f4d1f60370fef10105fa2faae0126114a169c64845d6126c98184015280840194909452938d166060840152608083018c905260a083019390935260c08083018b90528151808403909101815260e08301909152805192019190912061190160f01b6101008301526101028201929092526101228101919091526101420160408051601f198184030181528282528051602091820120600084529083018083525260ff871690820152606081018590526080810184905260a0016020604051602081039080840390855afa158015610fdd573d6000803e3d6000fd5b5050604051601f1901519150506001600160a01b038116158015906110135750876001600160a01b0316816001600160a01b0316145b6110505760405162461bcd60e51b815260206004820152600e60248201526d24a72b20a624a22fa9a4a3a722a960911b6044820152606401610a38565b6001600160a01b0390811660009081526004602090815260408083208a8516808552908352928190208990555188815291928a16917f8c5be1e5ebec7d5bd14f71427d1e84f3dd0314c0f7b2291e5b200ac8c7c3b925910160405180910390a350505050505050565b600061088a82610e33565b8282028115158415858304851417166110dc57600080fd5b0492915050565b8282028115158415858304851417166110fb57600080fd5b6001826001830304018115150290509392505050565b60007f8b73c3c69bb8fe3d512ecc4cf759cc79239f7b179b0ffacaa9a75d522b39400f600060405161114391906115ff565b6040805191829003822060208301939093528101919091527fc89efdaa54c0f20c7adf612882df0950f5a951637e0307cdcb4c672f298b8bc660608201524660808201523060a082015260c00160405160208183030381529060405280519060200120905090565b60006040516323b872dd60e01b81528460048201528360248201528260448201526020600060648360008a5af13d15601f3d116001600051141617169150508061122e5760405162461bcd60e51b81526020600482015260146024820152731514905394d1915497d19493d357d1905253115160621b6044820152606401610a38565b5050505050565b8060026000828254611247919061169a565b90915550506001600160a01b0382166000818152600360209081526040808320805486019055518481526000805160206116b383398151915291015b60405180910390a35050565b6001600160a01b038216600090815260036020526040812080548392906112b79084906115e8565b90915550506002805482900390556040518181526000906001600160a01b038416906000805160206116b383398151915290602001611283565b600060405163a9059cbb60e01b8152836004820152826024820152602060006044836000895af13d15601f3d11600160005114161716915050806113695760405162461bcd60e51b815260206004820152600f60248201526e1514905394d1915497d19052531151608a1b6044820152606401610a38565b50505050565b60006020828403121561138157600080fd5b5051919050565b600060208083528351808285015260005b818110156113b557858101830151858201604001528201611399565b818111156113c7576000604083870101525b50601f01601f1916929092016040019392505050565b6000602082840312156113ef57600080fd5b5035919050565b80356001600160a01b038116811461140d57600080fd5b919050565b6000806040838503121561142557600080fd5b61142e836113f6565b946020939093013593505050565b60008060006060848603121561145157600080fd5b61145a846113f6565b9250611468602085016113f6565b9150604084013590509250925092565b60006020828403121561148a57600080fd5b61081c826113f6565b600080604083850312156114a657600080fd5b823591506114b6602084016113f6565b90509250929050565b6000806000606084860312156114d457600080fd5b833592506114e4602085016113f6565b91506114f2604085016113f6565b90509250925092565b600080600080600080600060e0888a03121561151657600080fd5b61151f886113f6565b965061152d602089016113f6565b95506040880135945060608801359350608088013560ff8116811461155157600080fd5b9699959850939692959460a0840135945060c09093013592915050565b6000806040838503121561158157600080fd5b61158a836113f6565b91506114b6602084016113f6565b600181811c908216806115ac57607f821691505b6020821081036115cc57634e487b7160e01b600052602260045260246000fd5b50919050565b634e487b7160e01b600052601160045260246000fd5b6000828210156115fa576115fa6115d2565b500390565b600080835481600182811c91508083168061161b57607f831692505b6020808410820361163a57634e487b7160e01b86526022600452602486fd5b81801561164e576001811461165f5761168c565b60ff1986168952848901965061168c565b60008a81526020902060005b868110156116845781548b82015290850190830161166b565b505084890196505b509498975050505050505050565b600082198211156116ad576116ad6115d2565b50019056feddf252ad1be2c89b69c2b068fc378daa952ba7f163c4a11628f55a4df523b3efa2646970667358221220be3059a2f4bb3eae141b10bbc5b2a73dcceaac8aa79d3e669d9718481ebb917464736f6c634300080d0033",
    "linkReferences": {}
  },
  "methodIdentifiers": {
    "DOMAIN_SEPARATOR()": "3644e515",
    "addNFTProduct(address,(uint256,uint256,uint256,uint256,uint256,uint256,uint256,uint256))": "900864d9",
    "exposureMultiplier()": "841a4b51",
    "getPnL(uint8,uint256,uint256,uint256,uint256,uint256)": "49a6efd1",
    "getPositionId(address,address,uint8)": "c11295c4",
    "maxShift()": "a0448fc5",
    "minMargin()": "39c294be",
    "nftProducts(address)": "c99d25a6",
    "openPosition(address,uint8,uint256,uint256,uint256,(bytes32,uint256,bytes,uint8,bytes32,bytes32))": "412fdc05",
    "oracle()": "7dc0d1d0",
    "owner()": "8da5cb5b",
    "pool()": "16f0115b",
    "positions(bytes32)": "514ea4bf",
    "removeNFTProduct(address)": "f6d2e95c",
    "setOwner(address)": "13af4035",
    "totalMaxExposureWeight()": "fcc40f77",
    "totalOpenInterest()": "d468e2a9",
    "utilizationMultiplier()": "5b382989",
    "weth()": "3fc8cef3"
  }
}