{
  "abi": [
    {
      "inputs": [
        {
          "internalType": "address",
          "name": "exchange",
          "type": "address"
        }
      ],
      "stateMutability": "nonpayable",
      "type": "constructor"
    },
    {
      "anonymous": false,
      "inputs": [
        {
          "indexed": true,
          "internalType": "address",
          "name": "owner",
          "type": "address"
        },
        {
          "indexed": true,
          "internalType": "address",
          "name": "spender",
          "type": "address"
        },
        {
          "indexed": false,
          "internalType": "uint256",
          "name": "amount",
          "type": "uint256"
        }
      ],
      "name": "Approval",
      "type": "event"
    },
    {
      "anonymous": false,
      "inputs": [
        {
          "indexed": true,
          "internalType": "address",
          "name": "caller",
          "type": "address"
        },
        {
          "indexed": true,
          "internalType": "address",
          "name": "owner",
          "type": "address"
        },
        {
          "indexed": false,
          "internalType": "uint256",
          "name": "assets",
          "type": "uint256"
        },
        {
          "indexed": false,
          "internalType": "uint256",
          "name": "shares",
          "type": "uint256"
        }
      ],
      "name": "Deposit",
      "type": "event"
    },
    {
      "anonymous": false,
      "inputs": [
        {
          "indexed": true,
          "internalType": "address",
          "name": "from",
          "type": "address"
        },
        {
          "indexed": true,
          "internalType": "address",
          "name": "to",
          "type": "address"
        },
        {
          "indexed": false,
          "internalType": "uint256",
          "name": "amount",
          "type": "uint256"
        }
      ],
      "name": "Transfer",
      "type": "event"
    },
    {
      "anonymous": false,
      "inputs": [
        {
          "indexed": true,
          "internalType": "address",
          "name": "caller",
          "type": "address"
        },
        {
          "indexed": true,
          "internalType": "address",
          "name": "receiver",
          "type": "address"
        },
        {
          "indexed": true,
          "internalType": "address",
          "name": "owner",
          "type": "address"
        },
        {
          "indexed": false,
          "internalType": "uint256",
          "name": "assets",
          "type": "uint256"
        },
        {
          "indexed": false,
          "internalType": "uint256",
          "name": "shares",
          "type": "uint256"
        }
      ],
      "name": "Withdraw",
      "type": "event"
    },
    {
      "inputs": [],
      "name": "DOMAIN_SEPARATOR",
      "outputs": [
        {
          "internalType": "bytes32",
          "name": "",
          "type": "bytes32"
        }
      ],
      "stateMutability": "view",
      "type": "function"
    },
    {
      "inputs": [
        {
          "internalType": "address",
          "name": "",
          "type": "address"
        },
        {
          "internalType": "address",
          "name": "",
          "type": "address"
        }
      ],
      "name": "allowance",
      "outputs": [
        {
          "internalType": "uint256",
          "name": "",
          "type": "uint256"
        }
      ],
      "stateMutability": "view",
      "type": "function"
    },
    {
      "inputs": [
        {
          "internalType": "address",
          "name": "spender",
          "type": "address"
        },
        {
          "internalType": "uint256",
          "name": "amount",
          "type": "uint256"
        }
      ],
      "name": "approve",
      "outputs": [
        {
          "internalType": "bool",
          "name": "",
          "type": "bool"
        }
      ],
      "stateMutability": "nonpayable",
      "type": "function"
    },
    {
      "inputs": [],
      "name": "asset",
      "outputs": [
        {
          "internalType": "contract ERC20",
          "name": "",
          "type": "address"
        }
      ],
      "stateMutability": "view",
      "type": "function"
    },
    {
      "inputs": [
        {
          "internalType": "address",
          "name": "",
          "type": "address"
        }
      ],
      "name": "balanceOf",
      "outputs": [
        {
          "internalType": "uint256",
          "name": "",
          "type": "uint256"
        }
      ],
      "stateMutability": "view",
      "type": "function"
    },
    {
      "inputs": [
        {
          "internalType": "uint256",
          "name": "shares",
          "type": "uint256"
        }
      ],
      "name": "convertToAssets",
      "outputs": [
        {
          "internalType": "uint256",
          "name": "",
          "type": "uint256"
        }
      ],
      "stateMutability": "view",
      "type": "function"
    },
    {
      "inputs": [
        {
          "internalType": "uint256",
          "name": "assets",
          "type": "uint256"
        }
      ],
      "name": "convertToShares",
      "outputs": [
        {
          "internalType": "uint256",
          "name": "",
          "type": "uint256"
        }
      ],
      "stateMutability": "view",
      "type": "function"
    },
    {
      "inputs": [],
      "name": "decimals",
      "outputs": [
        {
          "internalType": "uint8",
          "name": "",
          "type": "uint8"
        }
      ],
      "stateMutability": "view",
      "type": "function"
    },
    {
      "inputs": [
        {
          "internalType": "uint256",
          "name": "assets",
          "type": "uint256"
        },
        {
          "internalType": "address",
          "name": "receiver",
          "type": "address"
        }
      ],
      "name": "deposit",
      "outputs": [
        {
          "internalType": "uint256",
          "name": "shares",
          "type": "uint256"
        }
      ],
      "stateMutability": "nonpayable",
      "type": "function"
    },
    {
      "inputs": [
        {
          "internalType": "address",
          "name": "",
          "type": "address"
        }
      ],
      "name": "maxDeposit",
      "outputs": [
        {
          "internalType": "uint256",
          "name": "",
          "type": "uint256"
        }
      ],
      "stateMutability": "view",
      "type": "function"
    },
    {
      "inputs": [
        {
          "internalType": "address",
          "name": "",
          "type": "address"
        }
      ],
      "name": "maxMint",
      "outputs": [
        {
          "internalType": "uint256",
          "name": "",
          "type": "uint256"
        }
      ],
      "stateMutability": "view",
      "type": "function"
    },
    {
      "inputs": [
        {
          "internalType": "address",
          "name": "owner",
          "type": "address"
        }
      ],
      "name": "maxRedeem",
      "outputs": [
        {
          "internalType": "uint256",
          "name": "",
          "type": "uint256"
        }
      ],
      "stateMutability": "view",
      "type": "function"
    },
    {
      "inputs": [
        {
          "internalType": "address",
          "name": "owner",
          "type": "address"
        }
      ],
      "name": "maxWithdraw",
      "outputs": [
        {
          "internalType": "uint256",
          "name": "",
          "type": "uint256"
        }
      ],
      "stateMutability": "view",
      "type": "function"
    },
    {
      "inputs": [
        {
          "internalType": "uint256",
          "name": "shares",
          "type": "uint256"
        },
        {
          "internalType": "address",
          "name": "receiver",
          "type": "address"
        }
      ],
      "name": "mint",
      "outputs": [
        {
          "internalType": "uint256",
          "name": "assets",
          "type": "uint256"
        }
      ],
      "stateMutability": "nonpayable",
      "type": "function"
    },
    {
      "inputs": [],
      "name": "name",
      "outputs": [
        {
          "internalType": "string",
          "name": "",
          "type": "string"
        }
      ],
      "stateMutability": "view",
      "type": "function"
    },
    {
      "inputs": [
        {
          "internalType": "address",
          "name": "",
          "type": "address"
        }
      ],
      "name": "nonces",
      "outputs": [
        {
          "internalType": "uint256",
          "name": "",
          "type": "uint256"
        }
      ],
      "stateMutability": "view",
      "type": "function"
    },
    {
      "inputs": [
        {
          "internalType": "address",
          "name": "owner",
          "type": "address"
        },
        {
          "internalType": "address",
          "name": "spender",
          "type": "address"
        },
        {
          "internalType": "uint256",
          "name": "value",
          "type": "uint256"
        },
        {
          "internalType": "uint256",
          "name": "deadline",
          "type": "uint256"
        },
        {
          "internalType": "uint8",
          "name": "v",
          "type": "uint8"
        },
        {
          "internalType": "bytes32",
          "name": "r",
          "type": "bytes32"
        },
        {
          "internalType": "bytes32",
          "name": "s",
          "type": "bytes32"
        }
      ],
      "name": "permit",
      "outputs": [],
      "stateMutability": "nonpayable",
      "type": "function"
    },
    {
      "inputs": [
        {
          "internalType": "uint256",
          "name": "assets",
          "type": "uint256"
        }
      ],
      "name": "previewDeposit",
      "outputs": [
        {
          "internalType": "uint256",
          "name": "",
          "type": "uint256"
        }
      ],
      "stateMutability": "view",
      "type": "function"
    },
    {
      "inputs": [
        {
          "internalType": "uint256",
          "name": "shares",
          "type": "uint256"
        }
      ],
      "name": "previewMint",
      "outputs": [
        {
          "internalType": "uint256",
          "name": "",
          "type": "uint256"
        }
      ],
      "stateMutability": "view",
      "type": "function"
    },
    {
      "inputs": [
        {
          "internalType": "uint256",
          "name": "shares",
          "type": "uint256"
        }
      ],
      "name": "previewRedeem",
      "outputs": [
        {
          "internalType": "uint256",
          "name": "",
          "type": "uint256"
        }
      ],
      "stateMutability": "view",
      "type": "function"
    },
    {
      "inputs": [
        {
          "internalType": "uint256",
          "name": "assets",
          "type": "uint256"
        }
      ],
      "name": "previewWithdraw",
      "outputs": [
        {
          "internalType": "uint256",
          "name": "",
          "type": "uint256"
        }
      ],
      "stateMutability": "view",
      "type": "function"
    },
    {
      "inputs": [
        {
          "internalType": "uint256",
          "name": "shares",
          "type": "uint256"
        },
        {
          "internalType": "address",
          "name": "receiver",
          "type": "address"
        },
        {
          "internalType": "address",
          "name": "owner",
          "type": "address"
        }
      ],
      "name": "redeem",
      "outputs": [
        {
          "internalType": "uint256",
          "name": "assets",
          "type": "uint256"
        }
      ],
      "stateMutability": "nonpayable",
      "type": "function"
    },
    {
      "inputs": [],
      "name": "symbol",
      "outputs": [
        {
          "internalType": "string",
          "name": "",
          "type": "string"
        }
      ],
      "stateMutability": "view",
      "type": "function"
    },
    {
      "inputs": [],
      "name": "totalAssets",
      "outputs": [
        {
          "internalType": "uint256",
          "name": "",
          "type": "uint256"
        }
      ],
      "stateMutability": "view",
      "type": "function"
    },
    {
      "inputs": [],
      "name": "totalSupply",
      "outputs": [
        {
          "internalType": "uint256",
          "name": "",
          "type": "uint256"
        }
      ],
      "stateMutability": "view",
      "type": "function"
    },
    {
      "inputs": [
        {
          "internalType": "address",
          "name": "to",
          "type": "address"
        },
        {
          "internalType": "uint256",
          "name": "amount",
          "type": "uint256"
        }
      ],
      "name": "transfer",
      "outputs": [
        {
          "internalType": "bool",
          "name": "",
          "type": "bool"
        }
      ],
      "stateMutability": "nonpayable",
      "type": "function"
    },
    {
      "inputs": [
        {
          "internalType": "address",
          "name": "from",
          "type": "address"
        },
        {
          "internalType": "address",
          "name": "to",
          "type": "address"
        },
        {
          "internalType": "uint256",
          "name": "amount",
          "type": "uint256"
        }
      ],
      "name": "transferFrom",
      "outputs": [
        {
          "internalType": "bool",
          "name": "",
          "type": "bool"
        }
      ],
      "stateMutability": "nonpayable",
      "type": "function"
    },
    {
      "inputs": [],
      "name": "weth",
      "outputs": [
        {
          "internalType": "contract WETH",
          "name": "",
          "type": "address"
        }
      ],
      "stateMutability": "view",
      "type": "function"
    },
    {
      "inputs": [
        {
          "internalType": "uint256",
          "name": "assets",
          "type": "uint256"
        },
        {
          "internalType": "address",
          "name": "receiver",
          "type": "address"
        },
        {
          "internalType": "address",
          "name": "owner",
          "type": "address"
        }
      ],
      "name": "withdraw",
      "outputs": [
        {
          "internalType": "uint256",
          "name": "shares",
          "type": "uint256"
        }
      ],
      "stateMutability": "nonpayable",
      "type": "function"
    },
    {
      "stateMutability": "payable",
      "type": "receive"
    }
  ],
  "bytecode": {
    "object": "0x61012060405273c02aaa39b223fe8d0a0e5c4f27ead9083c756cc2610100523480156200002b57600080fd5b5060405162001bdd38038062001bdd8339810160408190526200004e916200030c565b610100516040518060400160405280600b81526020016a2628102837b9b4ba34b7b760a91b8152506040518060400160405280600281526020016106c760f41b8152508181846001600160a01b031663313ce5676040518163ffffffff1660e01b8152600401602060405180830381865afa158015620000d2573d6000803e3d6000fd5b505050506040513d601f19601f82011682018060405250810190620000f891906200033e565b82516200010d90600090602086019062000266565b5081516200012390600190602085019062000266565b5060ff81166080524660a05262000139620001ca565b60c052505050506001600160a01b0391821660e052506101005160405163095ea7b360e01b81528383166004820152600019602482015291169063095ea7b3906044016020604051808303816000875af11580156200019c573d6000803e3d6000fd5b505050506040513d601f19601f82011682018060405250810190620001c2919062000363565b505062000466565b60007f8b73c3c69bb8fe3d512ecc4cf759cc79239f7b179b0ffacaa9a75d522b39400f6000604051620001fe9190620003c3565b6040805191829003822060208301939093528101919091527fc89efdaa54c0f20c7adf612882df0950f5a951637e0307cdcb4c672f298b8bc660608201524660808201523060a082015260c00160405160208183030381529060405280519060200120905090565b828054620002749062000387565b90600052602060002090601f016020900481019282620002985760008555620002e3565b82601f10620002b357805160ff1916838001178555620002e3565b82800160010185558215620002e3579182015b82811115620002e3578251825591602001919060010190620002c6565b50620002f1929150620002f5565b5090565b5b80821115620002f15760008155600101620002f6565b6000602082840312156200031f57600080fd5b81516001600160a01b03811681146200033757600080fd5b9392505050565b6000602082840312156200035157600080fd5b815160ff811681146200033757600080fd5b6000602082840312156200037657600080fd5b815180151581146200033757600080fd5b600181811c908216806200039c57607f821691505b602082108103620003bd57634e487b7160e01b600052602260045260246000fd5b50919050565b600080835481600182811c915080831680620003e057607f831692505b602080841082036200040057634e487b7160e01b86526022600452602486fd5b818015620004175760018114620004295762000458565b60ff1986168952848901965062000458565b60008a81526020902060005b86811015620004505781548b82015290850190830162000435565b505084890196505b509498975050505050505050565b60805160a05160c05160e05161010051611708620004d5600039600081816101cd0152818161045701526106f001526000818161040b01528181610a4e01528181610ae601528181610cca0152610e0c015260006109c401526000610994015260006103b001526117086000f3fe6080604052600436106101c65760003560e01c806370a08231116100f7578063ba08765211610095578063d505accf11610064578063d505accf1461062a578063d905777e1461064a578063dd62ed3e14610680578063ef8b30f7146106b857600080fd5b8063ba087652146105ca578063c63d75b614610479578063c6e6f592146105ea578063ce96cb771461060a57600080fd5b806395d89b41116100d157806395d89b4114610555578063a9059cbb1461056a578063b3d7f6b91461058a578063b460af94146105aa57600080fd5b806370a08231146104db5780637ecebe001461050857806394bf804d1461053557600080fd5b8063313ce567116101645780633fc8cef31161013e5780633fc8cef314610445578063402d267d146104795780634cdad5061461049b5780636e553f65146104bb57600080fd5b8063313ce5671461039e5780633644e515146103e457806338d52e0f146103f957600080fd5b8063095ea7b3116101a0578063095ea7b3146103185780630a28a4771461034857806318160ddd1461036857806323b872dd1461037e57600080fd5b806301e1d114146102ae57806306fdde03146102d657806307a2d13a146102f857600080fd5b366102a9577f00000000000000000000000000000000000000000000000000000000000000006001600160a01b031663d0e30db0346040518263ffffffff1660e01b81526004016000604051808303818588803b15801561022657600080fd5b505af115801561023a573d6000803e3d6000fd5b5050604051636e553f6560e01b8152346004820152336024820152309350636e553f65925060440190506020604051808303816000875af1158015610283573d6000803e3d6000fd5b505050506040513d601f19601f820116820180604052508101906102a7919061136f565b005b600080fd5b3480156102ba57600080fd5b506102c36106d8565b6040519081526020015b60405180910390f35b3480156102e257600080fd5b506102eb610768565b6040516102cd9190611388565b34801561030457600080fd5b506102c36103133660046113dd565b6107f6565b34801561032457600080fd5b50610338610333366004611412565b610823565b60405190151581526020016102cd565b34801561035457600080fd5b506102c36103633660046113dd565b610890565b34801561037457600080fd5b506102c360025481565b34801561038a57600080fd5b5061033861039936600461143c565b6108b0565b3480156103aa57600080fd5b506103d27f000000000000000000000000000000000000000000000000000000000000000081565b60405160ff90911681526020016102cd565b3480156103f057600080fd5b506102c3610990565b34801561040557600080fd5b5061042d7f000000000000000000000000000000000000000000000000000000000000000081565b6040516001600160a01b0390911681526020016102cd565b34801561045157600080fd5b5061042d7f000000000000000000000000000000000000000000000000000000000000000081565b34801561048557600080fd5b506102c3610494366004611478565b5060001990565b3480156104a757600080fd5b506102c36104b63660046113dd565b6109e6565b3480156104c757600080fd5b506102c36104d6366004611493565b6109f1565b3480156104e757600080fd5b506102c36104f6366004611478565b60036020526000908152604090205481565b34801561051457600080fd5b506102c3610523366004611478565b60056020526000908152604090205481565b34801561054157600080fd5b506102c3610550366004611493565b610acc565b34801561056157600080fd5b506102eb610b5b565b34801561057657600080fd5b50610338610585366004611412565b610b68565b34801561059657600080fd5b506102c36105a53660046113dd565b610bce565b3480156105b657600080fd5b506102c36105c53660046114bf565b610bed565b3480156105d657600080fd5b506102c36105e53660046114bf565b610cf1565b3480156105f657600080fd5b506102c36106053660046113dd565b610e33565b34801561061657600080fd5b506102c3610625366004611478565b610e53565b34801561063657600080fd5b506102a76106453660046114fb565b610e75565b34801561065657600080fd5b506102c3610665366004611478565b6001600160a01b031660009081526003602052604090205490565b34801561068c57600080fd5b506102c361069b36600461156e565b600460209081526000928352604080842090915290825290205481565b3480156106c457600080fd5b506102c36106d33660046113dd565b6110b9565b6040516370a0823160e01b81523060048201526000907f00000000000000000000000000000000000000000000000000000000000000006001600160a01b0316906370a0823190602401602060405180830381865afa15801561073f573d6000803e3d6000fd5b505050506040513d601f19601f82011682018060405250810190610763919061136f565b905090565b6000805461077590611598565b80601f01602080910402602001604051908101604052809291908181526020018280546107a190611598565b80156107ee5780601f106107c3576101008083540402835291602001916107ee565b820191906000526020600020905b8154815290600101906020018083116107d157829003601f168201915b505050505081565b600254600090801561081a5761081561080d6106d8565b8490836110c4565b61081c565b825b9392505050565b3360008181526004602090815260408083206001600160a01b038716808552925280832085905551919290917f8c5be1e5ebec7d5bd14f71427d1e84f3dd0314c0f7b2291e5b200ac8c7c3b9259061087e9086815260200190565b60405180910390a35060015b92915050565b600254600090801561081a57610815816108a86106d8565b8591906110e3565b6001600160a01b0383166000908152600460209081526040808320338452909152812054600019811461090c576108e783826115e8565b6001600160a01b03861660009081526004602090815260408083203384529091529020555b6001600160a01b038516600090815260036020526040812080548592906109349084906115e8565b90915550506001600160a01b03808516600081815260036020526040908190208054870190555190918716906000805160206116b38339815191529061097d9087815260200190565b60405180910390a3506001949350505050565b60007f000000000000000000000000000000000000000000000000000000000000000046146109c157610763611111565b507f000000000000000000000000000000000000000000000000000000000000000090565b600061088a826107f6565b60006109fc836110b9565b905080600003610a415760405162461bcd60e51b815260206004820152600b60248201526a5a45524f5f53484152455360a81b60448201526064015b60405180910390fd5b610a766001600160a01b037f0000000000000000000000000000000000000000000000000000000000000000163330866111ab565b610a808282611235565b60408051848152602081018390526001600160a01b0384169133917fdcbc1c05240f31ff3ad067ef1ee35ce4997762752e3a095284754544f4c709d791015b60405180910390a361088a565b6000610ad783610bce565b9050610b0e6001600160a01b037f0000000000000000000000000000000000000000000000000000000000000000163330846111ab565b610b188284611235565b60408051828152602081018590526001600160a01b0384169133917fdcbc1c05240f31ff3ad067ef1ee35ce4997762752e3a095284754544f4c709d79101610abf565b6001805461077590611598565b33600090815260036020526040812080548391908390610b899084906115e8565b90915550506001600160a01b038316600081815260036020526040908190208054850190555133906000805160206116b38339815191529061087e9086815260200190565b600254600090801561081a57610815610be56106d8565b8490836110e3565b6000610bf884610890565b9050336001600160a01b03831614610c68576001600160a01b03821660009081526004602090815260408083203384529091529020546000198114610c6657610c4182826115e8565b6001600160a01b03841660009081526004602090815260408083203384529091529020555b505b610c72828261128f565b60408051858152602081018390526001600160a01b03808516929086169133917ffbde797d201c681b91056529119e0b02407c7bb96a4a2c75c01fc9667232c8db910160405180910390a461081c6001600160a01b037f00000000000000000000000000000000000000000000000000000000000000001684866112f1565b6000336001600160a01b03831614610d61576001600160a01b03821660009081526004602090815260408083203384529091529020546000198114610d5f57610d3a85826115e8565b6001600160a01b03841660009081526004602090815260408083203384529091529020555b505b610d6a846109e6565b905080600003610daa5760405162461bcd60e51b815260206004820152600b60248201526a5a45524f5f41535345545360a81b6044820152606401610a38565b610db4828561128f565b60408051828152602081018690526001600160a01b03808516929086169133917ffbde797d201c681b91056529119e0b02407c7bb96a4a2c75c01fc9667232c8db910160405180910390a461081c6001600160a01b037f00000000000000000000000000000000000000000000000000000000000000001684836112f1565b600254600090801561081a5761081581610e4b6106d8565b8591906110c4565b6001600160a01b03811660009081526003602052604081205461088a906107f6565b42841015610ec55760405162461bcd60e51b815260206004820152601760248201527f5045524d49545f444541444c494e455f455850495245440000000000000000006044820152606401610a38565b60006001610ed1610990565b6001600160a01b038a811660008181526005602090815260409182902080546001810190915582517f6e71edae12b1b97f4d1f60370fef10105fa2faae0126114a169c64845d6126c98184015280840194909452938d166060840152608083018c905260a083019390935260c08083018b90528151808403909101815260e08301909152805192019190912061190160f01b6101008301526101028201929092526101228101919091526101420160408051601f198184030181528282528051602091820120600084529083018083525260ff871690820152606081018590526080810184905260a0016020604051602081039080840390855afa158015610fdd573d6000803e3d6000fd5b5050604051601f1901519150506001600160a01b038116158015906110135750876001600160a01b0316816001600160a01b0316145b6110505760405162461bcd60e51b815260206004820152600e60248201526d24a72b20a624a22fa9a4a3a722a960911b6044820152606401610a38565b6001600160a01b0390811660009081526004602090815260408083208a8516808552908352928190208990555188815291928a16917f8c5be1e5ebec7d5bd14f71427d1e84f3dd0314c0f7b2291e5b200ac8c7c3b925910160405180910390a350505050505050565b600061088a82610e33565b8282028115158415858304851417166110dc57600080fd5b0492915050565b8282028115158415858304851417166110fb57600080fd5b6001826001830304018115150290509392505050565b60007f8b73c3c69bb8fe3d512ecc4cf759cc79239f7b179b0ffacaa9a75d522b39400f600060405161114391906115ff565b6040805191829003822060208301939093528101919091527fc89efdaa54c0f20c7adf612882df0950f5a951637e0307cdcb4c672f298b8bc660608201524660808201523060a082015260c00160405160208183030381529060405280519060200120905090565b60006040516323b872dd60e01b81528460048201528360248201528260448201526020600060648360008a5af13d15601f3d116001600051141617169150508061122e5760405162461bcd60e51b81526020600482015260146024820152731514905394d1915497d19493d357d1905253115160621b6044820152606401610a38565b5050505050565b8060026000828254611247919061169a565b90915550506001600160a01b0382166000818152600360209081526040808320805486019055518481526000805160206116b383398151915291015b60405180910390a35050565b6001600160a01b038216600090815260036020526040812080548392906112b79084906115e8565b90915550506002805482900390556040518181526000906001600160a01b038416906000805160206116b383398151915290602001611283565b600060405163a9059cbb60e01b8152836004820152826024820152602060006044836000895af13d15601f3d11600160005114161716915050806113695760405162461bcd60e51b815260206004820152600f60248201526e1514905394d1915497d19052531151608a1b6044820152606401610a38565b50505050565b60006020828403121561138157600080fd5b5051919050565b600060208083528351808285015260005b818110156113b557858101830151858201604001528201611399565b818111156113c7576000604083870101525b50601f01601f1916929092016040019392505050565b6000602082840312156113ef57600080fd5b5035919050565b80356001600160a01b038116811461140d57600080fd5b919050565b6000806040838503121561142557600080fd5b61142e836113f6565b946020939093013593505050565b60008060006060848603121561145157600080fd5b61145a846113f6565b9250611468602085016113f6565b9150604084013590509250925092565b60006020828403121561148a57600080fd5b61081c826113f6565b600080604083850312156114a657600080fd5b823591506114b6602084016113f6565b90509250929050565b6000806000606084860312156114d457600080fd5b833592506114e4602085016113f6565b91506114f2604085016113f6565b90509250925092565b600080600080600080600060e0888a03121561151657600080fd5b61151f886113f6565b965061152d602089016113f6565b95506040880135945060608801359350608088013560ff8116811461155157600080fd5b9699959850939692959460a0840135945060c09093013592915050565b6000806040838503121561158157600080fd5b61158a836113f6565b91506114b6602084016113f6565b600181811c908216806115ac57607f821691505b6020821081036115cc57634e487b7160e01b600052602260045260246000fd5b50919050565b634e487b7160e01b600052601160045260246000fd5b6000828210156115fa576115fa6115d2565b500390565b600080835481600182811c91508083168061161b57607f831692505b6020808410820361163a57634e487b7160e01b86526022600452602486fd5b81801561164e576001811461165f5761168c565b60ff1986168952848901965061168c565b60008a81526020902060005b868110156116845781548b82015290850190830161166b565b505084890196505b509498975050505050505050565b600082198211156116ad576116ad6115d2565b50019056feddf252ad1be2c89b69c2b068fc378daa952ba7f163c4a11628f55a4df523b3efa264697066735822122007b2a709b46c462319797986bc38b792d2c0d03b92213b3631c4fe245a87165364736f6c634300080d0033",
    "linkReferences": {}
  },
  "methodIdentifiers": {
    "DOMAIN_SEPARATOR()": "3644e515",
    "allowance(address,address)": "dd62ed3e",
    "approve(address,uint256)": "095ea7b3",
    "asset()": "38d52e0f",
    "balanceOf(address)": "70a08231",
    "convertToAssets(uint256)": "07a2d13a",
    "convertToShares(uint256)": "c6e6f592",
    "decimals()": "313ce567",
    "deposit(uint256,address)": "6e553f65",
    "maxDeposit(address)": "402d267d",
    "maxMint(address)": "c63d75b6",
    "maxRedeem(address)": "d905777e",
    "maxWithdraw(address)": "ce96cb77",
    "mint(uint256,address)": "94bf804d",
    "name()": "06fdde03",
    "nonces(address)": "7ecebe00",
    "permit(address,address,uint256,uint256,uint8,bytes32,bytes32)": "d505accf",
    "previewDeposit(uint256)": "ef8b30f7",
    "previewMint(uint256)": "b3d7f6b9",
    "previewRedeem(uint256)": "4cdad506",
    "previewWithdraw(uint256)": "0a28a477",
    "redeem(uint256,address,address)": "ba087652",
    "symbol()": "95d89b41",
    "totalAssets()": "01e1d114",
    "totalSupply()": "18160ddd",
    "transfer(address,uint256)": "a9059cbb",
    "transferFrom(address,address,uint256)": "23b872dd",
    "weth()": "3fc8cef3",
    "withdraw(uint256,address,address)": "b460af94"
  }
}